{
  "contractName": "EthAirDrop",
  "abi": [
    {
      "constant": true,
      "inputs": [
        {
          "name": "",
          "type": "address"
        }
      ],
      "name": "redeemedTokens",
      "outputs": [
        {
          "name": "",
          "type": "bool"
        }
      ],
      "payable": false,
      "stateMutability": "view",
      "type": "function"
    },
    {
      "inputs": [
        {
          "name": "tokenAddress",
          "type": "address"
        }
      ],
      "payable": false,
      "stateMutability": "nonpayable",
      "type": "constructor"
    },
    {
      "anonymous": false,
      "inputs": [
        {
          "indexed": false,
          "name": "refundee",
          "type": "address"
        },
        {
          "indexed": false,
          "name": "value",
          "type": "uint256"
        }
      ],
      "name": "Refund",
      "type": "event"
    },
    {
      "constant": false,
      "inputs": [],
      "name": "redeemTokens",
      "outputs": [],
      "payable": false,
      "stateMutability": "nonpayable",
      "type": "function"
    }
  ],
  "bytecode": "0x608060405234801561001057600080fd5b5060405160208061048d83398101806040528101908080519060200190929190505050806000806101000a81548173ffffffffffffffffffffffffffffffffffffffff021916908373ffffffffffffffffffffffffffffffffffffffff1602179055505061040a806100836000396000f30060806040526004361061004c576000357c0100000000000000000000000000000000000000000000000000000000900463ffffffff168063682eb32b14610051578063e9a9c50c146100ac575b600080fd5b34801561005d57600080fd5b50610092600480360381019080803573ffffffffffffffffffffffffffffffffffffffff1690602001909291905050506100c3565b604051808215151515815260200191505060405180910390f35b3480156100b857600080fd5b506100c16100e3565b005b60016020528060005260406000206000915054906101000a900460ff1681565b6000801515600160003373ffffffffffffffffffffffffffffffffffffffff1673ffffffffffffffffffffffffffffffffffffffff16815260200190815260200160002060009054906101000a900460ff16151514151561014357600080fd5b60018060003373ffffffffffffffffffffffffffffffffffffffff1673ffffffffffffffffffffffffffffffffffffffff16815260200190815260200160002060006101000a81548160ff0219169083151502179055506000809054906101000a900473ffffffffffffffffffffffffffffffffffffffff1673ffffffffffffffffffffffffffffffffffffffff166370a08231336040518263ffffffff167c0100000000000000000000000000000000000000000000000000000000028152600401808273ffffffffffffffffffffffffffffffffffffffff1673ffffffffffffffffffffffffffffffffffffffff168152602001915050602060405180830381600087803b15801561025657600080fd5b505af115801561026a573d6000803e3d6000fd5b505050506040513d602081101561028057600080fd5b810190808051906020019092919050505090506702c68af0bb1400008111156102af576702c68af0bb14000090505b6102c360378261039090919063ffffffff16565b90506102d96064826103c890919063ffffffff16565b90503373ffffffffffffffffffffffffffffffffffffffff166108fc829081150290604051600060405180830381858888f19350505050158015610321573d6000803e3d6000fd5b507fbb28353e4598c3b9199101a66e0989549b659a59a54d2c27fbb183f1932c8e6d3382604051808373ffffffffffffffffffffffffffffffffffffffff1673ffffffffffffffffffffffffffffffffffffffff1681526020018281526020019250505060405180910390a150565b6000808314156103a357600090506103c2565b81830290508183828115156103b457fe5b041415156103be57fe5b8090505b92915050565b600081838115156103d557fe5b049050929150505600a165627a7a72305820905f8961ac1bf1f1142c217c946abbbdcfad0782a302e4d76913ce5d4b642cd60029",
  "source": "pragma solidity ^0.4.19;\nimport \"zeppelin-solidity/contracts/token/ERC20/ERC20.sol\";\nimport \"zeppelin-solidity/contracts/Math/SafeMath.sol\";\n\ncontract EthAirDrop {\n\n\tusing SafeMath for uint256;\n\tERC20 myToken;\n\tmapping (address => bool) public redeemedTokens;\n\n\tevent Refund(address refundee, uint value);\n\n\tconstructor(address tokenAddress) {\n\t\tmyToken = ERC20(tokenAddress);\n\t}\n\n\tfunction redeemTokens() {\n\t\trequire(redeemedTokens[msg.sender] == false);\n\t\tredeemedTokens[msg.sender] = true;\n\t\tuint256 balance = myToken.balanceOf(msg.sender);\n\t\tif(balance > 200000000000000000){\n\t\t\tbalance = 200000000000000000;\n\t\t}\n\t\tbalance = balance.mul(55);\n\t\tbalance = balance.div(100);\n\t\tmsg.sender.transfer(balance);\n\t\tRefund(msg.sender, balance);\n\t}\n}",
  "sourcePath": "/Users/brandonbryant/BlockchainProjects/BITTokenTest/contracts/EthAirDrop.sol",
  "compiler": {
    "name": "solc",
    "version": "0.4.24+commit.e67f0147.Emscripten.clang"
  },
  "schemaVersion": "2.0.0",
  "updatedAt": "2018-07-10T03:45:54.332Z"
}